:100000000C9468000C9490000C9490000C94900058
:100010000C9490000C9490000C9490000C94900020
:100020000C9490000C9490000C9490000C94900010
:100030000C9490000C9490000C9490000C94900000
:100040000C949A040C9490000C940A050C94E4040B
:100050000C9490000C9490000C9490000C949000E0
:100060000C943C050C9490007A04590471045C04CF
:100070005F046204650468046B0471046E0400008C
:100080000000240027002A000000000025002800AE
:100090002B00040404040404040402020202020209
:1000A000030303030303010204081020408001023C
:1000B00004081020010204081020000000080002BB
:1000C00001000003040700000000000000006A06B1
:1000D00011241FBECFEFD4E0DEBFCDBF12E0A0E001
:1000E000B1E0E2ECFFE002C005900D92AE31B10745
:1000F000D9F723E0AEE1B2E001C01D92AF37B207FD
:10010000E1F710E0C8E6D0E004C02197FE010E94AC
:10011000CB07C736D107C9F70E94A3060C94DF07A7
:100120000C94000090E0FC01E654FF4F3491FC0178
:10013000EA55FF4F2491FC01EE56FF4FE491EE2368
:1001400009F43BC0332339F1333091F038F43130C6
:10015000A9F0323001F584B58F7D12C0373091F0AF
:100160003830A1F03430B9F4809180008F7D03C025
:10017000809180008F77809380000DC084B58F7749
:1001800084BD09C08091B0008F7703C08091B0001A
:100190008F7D8093B000F0E0EE0FFF1FE857FF4F18
:1001A000A591B4918FB7F894EC91611103C020959B
:1001B0002E2301C02E2B2C938FBF08953FB7F894A8
:1001C0008091D2029091D302A091D402B091D50235
:1001D00026B5A89B05C02F3F19F00196A11DB11DA2
:1001E0003FBFBA2FA92F982F8827820F911DA11DDD
:1001F000B11DBC01CD0142E0660F771F881F991F1A
:100200004A95D1F70895E091CB02F091CC02309756
:1002100029F01092C2021092C10209940895CF935E
:10022000DF93AC01E091C902F091CA023097F1F07E
:100230009091C4028091C3029817C0F090E0292FDA
:1002400030E02617370754F4D901A95CBD4FEA0105
:10025000C20FD31F88818C939F5FF1CF1092C4028D
:100260006093C302CB01DF91CF910994DF91CF91CD
:100270000895CF92DF92EF92FF920F931F93CF9347
:10028000DF936C017A018B01C0E0D0E0CE15DF0571
:1002900089F0D8016D918D01D601ED91FC9101900D
:1002A000F081E02DC6010995892B11F47E0102C071
:1002B0002196ECCFC701DF91CF911F910F91FF9055
:1002C000EF90DF90CF900895FC01538D448D252F42
:1002D00030E0842F90E0821B930B541710F0CF96E0
:1002E000089501970895FC01918D828D981761F012
:1002F000828DDF01A80FB11D5D968C91928D9F5F5D
:100300009F73928F90E008958FEF9FEF0895FC0107
:10031000918D828D981731F0828DE80FF11D858DBA
:1003200090E008958FEF9FEF0895FC01918D228D4D
:10033000892F90E0805C9F4F821B91098F739927D2
:10034000089586ED92E00E94950121E0892B09F441
:1003500020E0822F0895FC01848DDF01A80FB11DDC
:10036000A35ABF4F2C91848D90E001968F739927EB
:10037000848FA689B7892C93A089B1898C918064D8
:100380008C93938D848D981306C00288F389E02D99
:1003900080818F7D80830895EF92FF920F931F934A
:1003A000CF93DF93EC0181E0888F9B8D8C8D981328
:1003B00005C0E889F989808185FD24C0F62E0B8D62
:1003C00010E00F5F1F4F0F731127E02E8C8DE81286
:1003D0000CC00FB607FCFACFE889F989808185FF48
:1003E000F5CFCE010E94AB01F1CF8B8DFE01E80F5E
:1003F000F11DE35AFF4FF0820B8FEA89FB89808160
:10040000806207C0EE89FF896083E889F98980816D
:100410008064808381E090E0DF91CF911F910F9104
:10042000FF90EF900895CF93DF93EC01888D8823A0
:10043000C9F0EA89FB89808185FD05C0A889B98951
:100440008C9186FD0FC00FB607FCF5CF808185FF2C
:10045000F2CFA889B9898C9185FFEDCFCE010E949A
:10046000AB01E7CFDF91CF91089580E090E0892B39
:1004700029F00E94A10181110C940000089585EDDE
:100480008093BC008091BC0084FDFCCF1092C00220
:10049000089540917702262F30E0240F311D21323C
:1004A0003105DCF42091C0022430C9F4FC0180E065
:1004B00090E0861758F4309177022191DC01A95A17
:1004C000BD4FA30FB11D2C930196F3CF80917702FE
:1004D000680F6093770280E0089581E0089582E0DC
:1004E00008950895E091C4028091C302E81730F4A2
:1004F000F0E0E95CFD4F808190E008958FEF9FEF81
:1005000008959091C4028091C302981750F4E92F86
:10051000F0E0E95CFD4F208130E09F5F9093C402E2
:1005200002C02FEF3FEFC90108958091C30290E010
:100530002091C402821B91090895CF93DF9300D0CC
:10054000CDB7DEB7CB01642F49835A830E9449029D
:100550004981842F5A81952F0F900F90DF91CF9171
:100560000895CF93DF931F92CDB7DEB7698361E023
:10057000CE0101960E94490281E090E00F90DF9148
:10058000CF910895089580E090E00895009769F074
:10059000FC0101900020E9F73197AF01481B590B8E
:1005A000BC0186ED92E00C94390180E090E0089562
:1005B0000C94C6028F929F92AF92BF920F931F939B
:1005C000CF93DF93CDB7DEB7A1970FB6F894DEBF18
:1005D0000FBECDBF19A2423008F44AE08E010F5D74
:1005E0001F4F842E912CA12CB12CA50194010E94A7
:1005F000A907E62FB901CA0101501109EA3014F424
:10060000E05D01C0E95CD801EC93232B242B252B62
:1006100061F7C8010E94C602A1960FB6F894DEBF2A
:100620000FBECDBFDF91CF911F910F91BF90AF90C3
:100630009F908F900895CF93DF930E94C602EC01A4
:100640008CE691E00E94C6028C0F9D1FDF91CF9136
:1006500008950E94D107CF93DF93EC018FE691E0DC
:100660000E94D802688170E080E090E040E10E9442
:10067000DA028DEA91E00E94D802698170E080E0A0
:1006800090E040E10E94DA0281E791E00E94D80206
:1006900083E791E00E94D8024AE062E070E080E0E7
:1006A00090E00E94DA0285E791E0DF91CF910C940F
:1006B0001B038F929F92AF92BF92CF92DF92EF92E5
:1006C000FF920F931F93CF93DF93CDB7DEB76C01EB
:1006D000ADB6BEB661E08DE00E9492008DB79EB7C8
:1006E0008C199D090FB6F8949EBF0FBE8DBF0DB734
:1006F0001EB70F5F1F4F780148018C0C9D1CE8143A
:10070000F90409F443C02FB7F8948091CE02909178
:10071000CF02A091D002B091D1022FBF80937B0372
:1007200090937C03A0937D03B0937E03E0917303C9
:10073000F09174030284F385E02D83E793E009953B
:1007400097FF4DC02FB7F8948091CE029091CF02C1
:10075000A091D002B091D1022FBF40917B03509164
:100760007C0360917D0370917E03841B950BA60B27
:10077000B70B4091770350917803609179037091A2
:100780007A0384179507A607B70780F287E791E0F9
:100790000E94D802F801608170E080E090E040E1C2
:1007A0000E94DA02F801618170E080E090E040E1AF
:1007B0000E94DA028CE691E00E94C602809120023B
:1007C000882389F010922002A601B8018091350299
:1007D000909136020E94D60786E891E034C0F70176
:1007E00081937F018CCFF801F080F1E0FF1679F062
:1007F00080911E028F1116C090911F02F801818115
:10080000981310C01092200280EB91E017C0F2E024
:10081000CF16D1046CF380EA91E00E94D802F092E6
:10082000200216C0809100018F110BC09091010130
:10083000F8018181981305C08DEB91E00E941B03A4
:1008400007C08DEC91E00E94D802C8010E942B03E2
:100850000FB6F894BEBE0FBEADBEDF91CF911F9113
:100860000F91FF90EF90DF90CF90BF90AF909F904F
:100870008F900895CF92DF92EF92FF92CF93DF9304
:1008800061E08DE00E949200E0913502F091360225
:100890008081883009F044C0C180D12CE12CF12C3A
:1008A000F6013597EB30F105E0F4EC5CFF4F0C946A
:1008B000CB07C1E2D2E020C0CEE3D1E01DC0C4E34B
:1008C000D1E01AC0CAE2D1E017C0C0E2D1E014C042
:1008D000C6E1D1E011C0CCE0D1E00EC0C2E0D1E071
:1008E0000BC08FED91E00E94D8024AE0C701B6012B
:1008F0000E94DA02CBE2D2E08BEF91E00E94D802B4
:10090000CE010E942B0342E050E0BE0183E793E05A
:10091000DF91CF91FF90EF90DF90CF900C949D02EC
:1009200087E092E0DF91CF91FF90EF90DF90CF9042
:100930000C941B031F920F920FB60F9211242F934A
:100940003F938F939F93AF93BF938091CE029091EB
:10095000CF02A091D002B091D1023091CD0223E01C
:10096000230F2D3720F40196A11DB11D05C026E8E7
:10097000230F0296A11DB11D2093CD028093CE02BC
:100980009093CF02A093D002B093D1028091D20273
:100990009091D302A091D402B091D5020196A11DED
:1009A000B11D8093D2029093D302A093D402B0934E
:1009B000D502BF91AF919F918F913F912F910F9051
:1009C0000FBE0F901F9018951F920F920FB60F92A7
:1009D00011242F933F934F935F936F937F938F9344
:1009E0009F93AF93BF93EF93FF9386ED92E00E94A6
:1009F000AB01FF91EF91BF91AF919F918F917F914B
:100A00006F915F914F913F912F910F900FBE0F907B
:100A10001F9018951F920F920FB60F9211242F93CB
:100A20008F939F93EF93FF93E091E602F091E7029B
:100A30008081E091EC02F091ED0282FD12C0908184
:100A40008091EF028F5F8F732091F002821751F037
:100A5000E091EF02F0E0EA52FD4F958F8093EF02B4
:100A600001C08081FF91EF919F918F912F910F9005
:100A70000FBE0F901F9018951F920F920FB60F92F6
:100A800011242F933F934F935F936F937F938F9393
:100A90009F93AF93BF93EF93FF938091B900887FAB
:100AA000803609F49CC068F5883209F45BC090F484
:100AB000803109F454C038F4882309F4F6C0883032
:100AC00009F44DC0F6C0883109F44CC0803209F4F5
:100AD0005DC0EFC0803409F468C048F4803309F485
:100AE00055C0883309F0E5C080939A02D8C080359C
:100AF00009F44FC0883509F45DC0883409F0D9C0C5
:100B0000D6C0883909F4C7C0A8F4883709F467C08B
:100B100038F4883609F463C0803709F460C0C9C06E
:100B2000883809F4B8C0803909F45FC0803809F00A
:100B3000C0C05BC0803B09F486C038F4803A09F439
:100B400066C0883A09F47FC0B4C0803C09F4A7C0ED
:100B5000883C09F4A4C0883B09F48AC0AAC08091EB
:100B6000BD0210C09091BC028091BB02981770F535
:100B7000E091BC0281E08E0F8093BC02F0E0E5566C
:100B8000FD4F80818093BB0085EC86C080939A02E4
:100B90008EC0E091BC0281E08E0F8093BC028091F8
:100BA000BB00F0E0E556FD4F80839091BC02809140
:100BB000BB026EC0E091BC0281E08E0F8093BC024C
:100BC0008091BB00F0E0E556FD4F80838091BF022D
:100BD00081116DC081E08093BE0284EA61C083E030
:100BE0008093C00210929902CFCF809199028032F7
:100BF00008F051C0E091990281E08E0F8093990234
:100C00008091BB00F0E0E758FD4F8083BDCF85ECBD
:100C10008093BC001092C00280919902803230F41F
:100C2000E0919902F0E0E758FD4F1082609199023F
:100C300070E0E091C502F091C60289E792E0099563
:100C40001092990236C084E08093C002109278021C
:100C500010927702E091C702F091C8020995809145
:100C60007702811105C081E08093770210925702CC
:100C7000E091780281E08E0F80937802F0E0E95AEB
:100C8000FD4F80818093BB00909178028091770224
:100C9000981708F479CF85E88093BC000AC085ECEA
:100CA0008093BC001092C00204C010929A020E946D
:100CB0003F02FF91EF91BF91AF919F918F917F91F3
:100CC0006F915F914F913F912F910F900FBE0F90B9
:100CD0001F901895E6EDF2E01382128288EE93E001
:100CE000A0E0B0E084839583A683B7832CE431E051
:100CF0003183208325EC30E03587248724EC30E0F5
:100D00003787268720EC30E0318B208B21EC30E0D8
:100D1000338B228B22EC30E0358B248B26EC30E0B9
:100D2000378B268B118E128E138E148EE3E7F3E031
:100D30001382128284839583A683B7838EE591E024
:100D4000918380830895789484B5826084BD84B54E
:100D5000816084BD85B5826085BD85B5816085BDB6
:100D600080916E00816080936E001092810080916E
:100D700081008260809381008091810081608093F6
:100D80008100809180008160809380008091B1001B
:100D900084608093B1008091B00081608093B00046
:100DA00080917A00846080937A0080917A008260DA
:100DB00080937A0080917A00816080937A0080919C
:100DC0007A00806880937A001092C10080EA809354
:100DD000BA0083E091E09093C8028093C7028FE04D
:100DE00091E09093C6028093C5021092C4021092C3
:100DF000C3021092C2021092C1021092C00281E09E
:100E00008093BF021092BE0261E082E10E949200D4
:100E100061E083E10E9492008091B9008E7F80930F
:100E2000B9008091B9008D7F8093B90088E48093E8
:100E3000B80085E48093BC0089E593E09093CA02F2
:100E40008093C9028AE394E09093CC028093CB0212
:100E5000E091E602F091E70282E08083E091E20215
:100E6000F091E3021082E091E402F091E5028FEC50
:100E700080831092EE02E091EA02F091EB0286E0AC
:100E80008083E091E802F091E902808180618083B3
:100E9000E091E802F091E902808188608083E0912E
:100EA000E802F091E902808180688083E091E802A5
:100EB000F091E90280818F7D808385E192E00E943C
:100EC0001B03E3EBF0E02491EFE9F0E08491882349
:100ED00099F090E0880F991FFC01E258FF4FA5910F
:100EE000B491FC01E857FF4F859194918FB7F89426
:100EF000EC91E22BEC938FBF60E08DE00E949200BA
:100F00000E94DE004B015C0184E6C82ED12CE12C4E
:100F1000F12C0E94DE00DC01CB0188199909AA0995
:100F2000BB09883E9340A105B10558F021E0C21AE3
:100F3000D108E108F10888EE880E83E0981EA11C14
:100F4000B11CC114D104E104F10419F70E94350267
:100F5000D7CFA1E21A2EAA1BBB1BFD010DC0AA1FF1
:100F6000BB1FEE1FFF1FA217B307E407F50720F012
:100F7000A21BB30BE40BF50B661F771F881F991F8D
:100F80001A9469F760957095809590959B01AC01D6
:100F9000BD01CF010895EE0FFF1F0590F491E02DE4
:100FA000099481E090E0F8940C94DF07FB01DC01E8
:100FB00002C001900D9241505040D8F70895F89426
:020FC000FFCF61
:100FC2000010DEE02108000000000000CBD82A302B
:100FD20000000000000000002108000000000000E6
:100FE20000002108000000000000003C0001000099
:100FF20000000000003C0001000000000000003C76
:10100200000100000000000000000000CC013901D6
:101012006401130295017301870100000000B1020F
:101022009D02C30271029502810272020D0A005BE7
:10103200005D0028002900524157202D207265636F
:1010420069657665640073657474696E672072659C
:101052006164206164647265737320746F3A200066
:1010620057726974652050656E64696E672C200042
:10107200436C65617220506172616D7300436172ED
:101082007269657220456E61626C656400554E48F6
:10109200414E444C45442077726974653A200045BC
:1010A20052524F522C20626C6F636B206E6F742011
:1010B200666F756E6420666F7220002072657370B1
:1010C2006F6E73653A2000205548414E44454420D6
:0E10D2004E41434B005374617274696E6700A7
:00000001FF
